{
  "_format": "hh-sol-artifact-1",
  "contractName": "Ethereal",
  "sourceName": "contracts/Ethereal.sol",
  "abi": [
    {
      "inputs": [],
      "stateMutability": "nonpayable",
      "type": "constructor"
    },
    {
      "inputs": [
        {
          "internalType": "address",
          "name": "sender",
          "type": "address"
        },
        {
          "internalType": "uint256",
          "name": "tokenId",
          "type": "uint256"
        },
        {
          "internalType": "address",
          "name": "owner",
          "type": "address"
        }
      ],
      "name": "ERC721IncorrectOwner",
      "type": "error"
    },
    {
      "inputs": [
        {
          "internalType": "address",
          "name": "operator",
          "type": "address"
        },
        {
          "internalType": "uint256",
          "name": "tokenId",
          "type": "uint256"
        }
      ],
      "name": "ERC721InsufficientApproval",
      "type": "error"
    },
    {
      "inputs": [
        {
          "internalType": "address",
          "name": "approver",
          "type": "address"
        }
      ],
      "name": "ERC721InvalidApprover",
      "type": "error"
    },
    {
      "inputs": [
        {
          "internalType": "address",
          "name": "operator",
          "type": "address"
        }
      ],
      "name": "ERC721InvalidOperator",
      "type": "error"
    },
    {
      "inputs": [
        {
          "internalType": "address",
          "name": "owner",
          "type": "address"
        }
      ],
      "name": "ERC721InvalidOwner",
      "type": "error"
    },
    {
      "inputs": [
        {
          "internalType": "address",
          "name": "receiver",
          "type": "address"
        }
      ],
      "name": "ERC721InvalidReceiver",
      "type": "error"
    },
    {
      "inputs": [
        {
          "internalType": "address",
          "name": "sender",
          "type": "address"
        }
      ],
      "name": "ERC721InvalidSender",
      "type": "error"
    },
    {
      "inputs": [
        {
          "internalType": "uint256",
          "name": "tokenId",
          "type": "uint256"
        }
      ],
      "name": "ERC721NonexistentToken",
      "type": "error"
    },
    {
      "inputs": [
        {
          "internalType": "address",
          "name": "owner",
          "type": "address"
        }
      ],
      "name": "OwnableInvalidOwner",
      "type": "error"
    },
    {
      "inputs": [
        {
          "internalType": "address",
          "name": "account",
          "type": "address"
        }
      ],
      "name": "OwnableUnauthorizedAccount",
      "type": "error"
    },
    {
      "anonymous": false,
      "inputs": [
        {
          "indexed": true,
          "internalType": "address",
          "name": "owner",
          "type": "address"
        },
        {
          "indexed": true,
          "internalType": "address",
          "name": "approved",
          "type": "address"
        },
        {
          "indexed": true,
          "internalType": "uint256",
          "name": "tokenId",
          "type": "uint256"
        }
      ],
      "name": "Approval",
      "type": "event"
    },
    {
      "anonymous": false,
      "inputs": [
        {
          "indexed": true,
          "internalType": "address",
          "name": "owner",
          "type": "address"
        },
        {
          "indexed": true,
          "internalType": "address",
          "name": "operator",
          "type": "address"
        },
        {
          "indexed": false,
          "internalType": "bool",
          "name": "approved",
          "type": "bool"
        }
      ],
      "name": "ApprovalForAll",
      "type": "event"
    },
    {
      "anonymous": false,
      "inputs": [
        {
          "indexed": false,
          "internalType": "uint256",
          "name": "_fromTokenId",
          "type": "uint256"
        },
        {
          "indexed": false,
          "internalType": "uint256",
          "name": "_toTokenId",
          "type": "uint256"
        }
      ],
      "name": "BatchMetadataUpdate",
      "type": "event"
    },
    {
      "anonymous": false,
      "inputs": [
        {
          "indexed": true,
          "internalType": "address",
          "name": "user",
          "type": "address"
        }
      ],
      "name": "FocusCompleted",
      "type": "event"
    },
    {
      "anonymous": false,
      "inputs": [
        {
          "indexed": true,
          "internalType": "address",
          "name": "user",
          "type": "address"
        },
        {
          "indexed": false,
          "internalType": "uint256",
          "name": "penalty",
          "type": "uint256"
        }
      ],
      "name": "FocusExitedEarly",
      "type": "event"
    },
    {
      "anonymous": false,
      "inputs": [
        {
          "indexed": true,
          "internalType": "address",
          "name": "user",
          "type": "address"
        },
        {
          "indexed": false,
          "internalType": "uint256",
          "name": "stake",
          "type": "uint256"
        },
        {
          "indexed": false,
          "internalType": "uint256",
          "name": "duration",
          "type": "uint256"
        }
      ],
      "name": "FocusStarted",
      "type": "event"
    },
    {
      "anonymous": false,
      "inputs": [
        {
          "indexed": false,
          "internalType": "uint256",
          "name": "_tokenId",
          "type": "uint256"
        }
      ],
      "name": "MetadataUpdate",
      "type": "event"
    },
    {
      "anonymous": false,
      "inputs": [
        {
          "indexed": true,
          "internalType": "address",
          "name": "user",
          "type": "address"
        },
        {
          "indexed": false,
          "internalType": "uint256",
          "name": "tokenId",
          "type": "uint256"
        }
      ],
      "name": "NFTRewarded",
      "type": "event"
    },
    {
      "anonymous": false,
      "inputs": [
        {
          "indexed": true,
          "internalType": "address",
          "name": "previousOwner",
          "type": "address"
        },
        {
          "indexed": true,
          "internalType": "address",
          "name": "newOwner",
          "type": "address"
        }
      ],
      "name": "OwnershipTransferred",
      "type": "event"
    },
    {
      "anonymous": false,
      "inputs": [
        {
          "indexed": true,
          "internalType": "address",
          "name": "from",
          "type": "address"
        },
        {
          "indexed": true,
          "internalType": "address",
          "name": "to",
          "type": "address"
        },
        {
          "indexed": true,
          "internalType": "uint256",
          "name": "tokenId",
          "type": "uint256"
        }
      ],
      "name": "Transfer",
      "type": "event"
    },
    {
      "inputs": [
        {
          "internalType": "address",
          "name": "to",
          "type": "address"
        },
        {
          "internalType": "uint256",
          "name": "tokenId",
          "type": "uint256"
        }
      ],
      "name": "approve",
      "outputs": [],
      "stateMutability": "nonpayable",
      "type": "function"
    },
    {
      "inputs": [
        {
          "internalType": "address",
          "name": "owner",
          "type": "address"
        }
      ],
      "name": "balanceOf",
      "outputs": [
        {
          "internalType": "uint256",
          "name": "",
          "type": "uint256"
        }
      ],
      "stateMutability": "view",
      "type": "function"
    },
    {
      "inputs": [],
      "name": "completeSession",
      "outputs": [],
      "stateMutability": "nonpayable",
      "type": "function"
    },
    {
      "inputs": [],
      "name": "exitEarly",
      "outputs": [],
      "stateMutability": "nonpayable",
      "type": "function"
    },
    {
      "inputs": [
        {
          "internalType": "uint256",
          "name": "tokenId",
          "type": "uint256"
        }
      ],
      "name": "getApproved",
      "outputs": [
        {
          "internalType": "address",
          "name": "",
          "type": "address"
        }
      ],
      "stateMutability": "view",
      "type": "function"
    },
    {
      "inputs": [
        {
          "internalType": "address",
          "name": "",
          "type": "address"
        }
      ],
      "name": "hasNFT",
      "outputs": [
        {
          "internalType": "bool",
          "name": "",
          "type": "bool"
        }
      ],
      "stateMutability": "view",
      "type": "function"
    },
    {
      "inputs": [
        {
          "internalType": "address",
          "name": "owner",
          "type": "address"
        },
        {
          "internalType": "address",
          "name": "operator",
          "type": "address"
        }
      ],
      "name": "isApprovedForAll",
      "outputs": [
        {
          "internalType": "bool",
          "name": "",
          "type": "bool"
        }
      ],
      "stateMutability": "view",
      "type": "function"
    },
    {
      "inputs": [],
      "name": "name",
      "outputs": [
        {
          "internalType": "string",
          "name": "",
          "type": "string"
        }
      ],
      "stateMutability": "view",
      "type": "function"
    },
    {
      "inputs": [],
      "name": "nftTokenCounter",
      "outputs": [
        {
          "internalType": "uint256",
          "name": "",
          "type": "uint256"
        }
      ],
      "stateMutability": "view",
      "type": "function"
    },
    {
      "inputs": [],
      "name": "owner",
      "outputs": [
        {
          "internalType": "address",
          "name": "",
          "type": "address"
        }
      ],
      "stateMutability": "view",
      "type": "function"
    },
    {
      "inputs": [
        {
          "internalType": "uint256",
          "name": "tokenId",
          "type": "uint256"
        }
      ],
      "name": "ownerOf",
      "outputs": [
        {
          "internalType": "address",
          "name": "",
          "type": "address"
        }
      ],
      "stateMutability": "view",
      "type": "function"
    },
    {
      "inputs": [],
      "name": "renounceOwnership",
      "outputs": [],
      "stateMutability": "nonpayable",
      "type": "function"
    },
    {
      "inputs": [
        {
          "internalType": "address",
          "name": "from",
          "type": "address"
        },
        {
          "internalType": "address",
          "name": "to",
          "type": "address"
        },
        {
          "internalType": "uint256",
          "name": "tokenId",
          "type": "uint256"
        }
      ],
      "name": "safeTransferFrom",
      "outputs": [],
      "stateMutability": "nonpayable",
      "type": "function"
    },
    {
      "inputs": [
        {
          "internalType": "address",
          "name": "from",
          "type": "address"
        },
        {
          "internalType": "address",
          "name": "to",
          "type": "address"
        },
        {
          "internalType": "uint256",
          "name": "tokenId",
          "type": "uint256"
        },
        {
          "internalType": "bytes",
          "name": "data",
          "type": "bytes"
        }
      ],
      "name": "safeTransferFrom",
      "outputs": [],
      "stateMutability": "nonpayable",
      "type": "function"
    },
    {
      "inputs": [
        {
          "internalType": "address",
          "name": "",
          "type": "address"
        }
      ],
      "name": "sessions",
      "outputs": [
        {
          "internalType": "uint256",
          "name": "startTime",
          "type": "uint256"
        },
        {
          "internalType": "uint256",
          "name": "duration",
          "type": "uint256"
        },
        {
          "internalType": "uint256",
          "name": "stake",
          "type": "uint256"
        },
        {
          "internalType": "address",
          "name": "user",
          "type": "address"
        },
        {
          "internalType": "bool",
          "name": "completed",
          "type": "bool"
        }
      ],
      "stateMutability": "view",
      "type": "function"
    },
    {
      "inputs": [
        {
          "internalType": "address",
          "name": "operator",
          "type": "address"
        },
        {
          "internalType": "bool",
          "name": "approved",
          "type": "bool"
        }
      ],
      "name": "setApprovalForAll",
      "outputs": [],
      "stateMutability": "nonpayable",
      "type": "function"
    },
    {
      "inputs": [
        {
          "internalType": "uint256",
          "name": "duration",
          "type": "uint256"
        }
      ],
      "name": "startSession",
      "outputs": [],
      "stateMutability": "payable",
      "type": "function"
    },
    {
      "inputs": [
        {
          "internalType": "bytes4",
          "name": "interfaceId",
          "type": "bytes4"
        }
      ],
      "name": "supportsInterface",
      "outputs": [
        {
          "internalType": "bool",
          "name": "",
          "type": "bool"
        }
      ],
      "stateMutability": "view",
      "type": "function"
    },
    {
      "inputs": [],
      "name": "symbol",
      "outputs": [
        {
          "internalType": "string",
          "name": "",
          "type": "string"
        }
      ],
      "stateMutability": "view",
      "type": "function"
    },
    {
      "inputs": [
        {
          "internalType": "uint256",
          "name": "tokenId",
          "type": "uint256"
        }
      ],
      "name": "tokenURI",
      "outputs": [
        {
          "internalType": "string",
          "name": "",
          "type": "string"
        }
      ],
      "stateMutability": "view",
      "type": "function"
    },
    {
      "inputs": [
        {
          "internalType": "address",
          "name": "from",
          "type": "address"
        },
        {
          "internalType": "address",
          "name": "to",
          "type": "address"
        },
        {
          "internalType": "uint256",
          "name": "tokenId",
          "type": "uint256"
        }
      ],
      "name": "transferFrom",
      "outputs": [],
      "stateMutability": "nonpayable",
      "type": "function"
    },
    {
      "inputs": [
        {
          "internalType": "address",
          "name": "newOwner",
          "type": "address"
        }
      ],
      "name": "transferOwnership",
      "outputs": [],
      "stateMutability": "nonpayable",
      "type": "function"
    },
    {
      "inputs": [],
      "name": "withdraw",
      "outputs": [],
      "stateMutability": "nonpayable",
      "type": "function"
    }
  ],
  "bytecode": "0x60806040523480156200001157600080fd5b50336040518060400160405280601281526020017f457468657265616c20466f637573204e465400000000000000000000000000008152506040518060400160405280600881526020017f455448464f43555300000000000000000000000000000000000000000000000081525081600090816200009091906200047a565b508060019081620000a291906200047a565b505050600073ffffffffffffffffffffffffffffffffffffffff168173ffffffffffffffffffffffffffffffffffffffff16036200011a5760006040517f1e4fbdf7000000000000000000000000000000000000000000000000000000008152600401620001119190620005a6565b60405180910390fd5b6200012b816200013a60201b60201c565b506001600a81905550620005c3565b6000600760009054906101000a900473ffffffffffffffffffffffffffffffffffffffff16905081600760006101000a81548173ffffffffffffffffffffffffffffffffffffffff021916908373ffffffffffffffffffffffffffffffffffffffff1602179055508173ffffffffffffffffffffffffffffffffffffffff168173ffffffffffffffffffffffffffffffffffffffff167f8be0079c531659141344cd1fd0a4f28419497f9722a3daafe3b4186f6b6457e060405160405180910390a35050565b600081519050919050565b7f4e487b7100000000000000000000000000000000000000000000000000000000600052604160045260246000fd5b7f4e487b7100000000000000000000000000000000000000000000000000000000600052602260045260246000fd5b600060028204905060018216806200028257607f821691505b6020821081036200029857620002976200023a565b5b50919050565b60008190508160005260206000209050919050565b60006020601f8301049050919050565b600082821b905092915050565b600060088302620003027fffffffffffffffffffffffffffffffffffffffffffffffffffffffffffffffff82620002c3565b6200030e8683620002c3565b95508019841693508086168417925050509392505050565b6000819050919050565b6000819050919050565b60006200035b620003556200034f8462000326565b62000330565b62000326565b9050919050565b6000819050919050565b62000377836200033a565b6200038f620003868262000362565b848454620002d0565b825550505050565b600090565b620003a662000397565b620003b38184846200036c565b505050565b5b81811015620003db57620003cf6000826200039c565b600181019050620003b9565b5050565b601f8211156200042a57620003f4816200029e565b620003ff84620002b3565b810160208510156200040f578190505b620004276200041e85620002b3565b830182620003b8565b50505b505050565b600082821c905092915050565b60006200044f600019846008026200042f565b1980831691505092915050565b60006200046a83836200043c565b9150826002028217905092915050565b620004858262000200565b67ffffffffffffffff811115620004a157620004a06200020b565b5b620004ad825462000269565b620004ba828285620003df565b600060209050601f831160018114620004f25760008415620004dd578287015190505b620004e985826200045c565b86555062000559565b601f19841662000502866200029e565b60005b828110156200052c5784890151825560018201915060208501945060208101905062000505565b868310156200054c578489015162000548601f8916826200043c565b8355505b6001600288020188555050505b505050505050565b600073ffffffffffffffffffffffffffffffffffffffff82169050919050565b60006200058e8262000561565b9050919050565b620005a08162000581565b82525050565b6000602082019050620005bd600083018462000595565b92915050565b61318180620005d36000396000f3fe6080604052600436106101405760003560e01c8063715018a6116100b6578063b88d4fde1161006f578063b88d4fde14610451578063c87b56dd1461047a578063e6334eea146104b7578063e985e9c5146104ce578063f139bda81461050b578063f2fde38b1461052257610140565b8063715018a6146103625780637712761214610379578063785f8ee3146103955780638da5cb5b146103d257806395d89b41146103fd578063a22cb4651461042857610140565b80633ccfd60b116101085780633ccfd60b1461023c57806342842e0e14610253578063431a1b971461027c5780634b7a764b146102bd5780636352211e146102e857806370a082311461032557610140565b806301ffc9a71461014557806306fdde0314610182578063081812fc146101ad578063095ea7b3146101ea57806323b872dd14610213575b600080fd5b34801561015157600080fd5b5061016c60048036038101906101679190612411565b61054b565b6040516101799190612459565b60405180910390f35b34801561018e57600080fd5b506101976105ac565b6040516101a49190612504565b60405180910390f35b3480156101b957600080fd5b506101d460048036038101906101cf919061255c565b61063e565b6040516101e191906125ca565b60405180910390f35b3480156101f657600080fd5b50610211600480360381019061020c9190612611565b61065a565b005b34801561021f57600080fd5b5061023a60048036038101906102359190612651565b610670565b005b34801561024857600080fd5b50610251610772565b005b34801561025f57600080fd5b5061027a60048036038101906102759190612651565b6107ca565b005b34801561028857600080fd5b506102a3600480360381019061029e91906126a4565b6107ea565b6040516102b49594939291906126e0565b60405180910390f35b3480156102c957600080fd5b506102d261084d565b6040516102df9190612733565b60405180910390f35b3480156102f457600080fd5b5061030f600480360381019061030a919061255c565b610853565b60405161031c91906125ca565b60405180910390f35b34801561033157600080fd5b5061034c600480360381019061034791906126a4565b610865565b6040516103599190612733565b60405180910390f35b34801561036e57600080fd5b5061037761091f565b005b610393600480360381019061038e919061255c565b610933565b005b3480156103a157600080fd5b506103bc60048036038101906103b791906126a4565b610b55565b6040516103c99190612459565b60405180910390f35b3480156103de57600080fd5b506103e7610b75565b6040516103f491906125ca565b60405180910390f35b34801561040957600080fd5b50610412610b9f565b60405161041f9190612504565b60405180910390f35b34801561043457600080fd5b5061044f600480360381019061044a919061277a565b610c31565b005b34801561045d57600080fd5b50610478600480360381019061047391906128ef565b610c47565b005b34801561048657600080fd5b506104a1600480360381019061049c919061255c565b610c6c565b6040516104ae9190612504565b60405180910390f35b3480156104c357600080fd5b506104cc610d7f565b005b3480156104da57600080fd5b506104f560048036038101906104f09190612972565b610f61565b6040516105029190612459565b60405180910390f35b34801561051757600080fd5b50610520610ff5565b005b34801561052e57600080fd5b50610549600480360381019061054491906126a4565b6111de565b005b6000634906490660e01b7bffffffffffffffffffffffffffffffffffffffffffffffffffffffff1916827bffffffffffffffffffffffffffffffffffffffffffffffffffffffff191614806105a557506105a482611264565b5b9050919050565b6060600080546105bb906129e1565b80601f01602080910402602001604051908101604052809291908181526020018280546105e7906129e1565b80156106345780601f1061060957610100808354040283529160200191610634565b820191906000526020600020905b81548152906001019060200180831161061757829003601f168201915b5050505050905090565b600061064982611346565b50610653826113ce565b9050919050565b61066c828261066761140b565b611413565b5050565b600073ffffffffffffffffffffffffffffffffffffffff168273ffffffffffffffffffffffffffffffffffffffff16036106e25760006040517f64a0ae920000000000000000000000000000000000000000000000000000000081526004016106d991906125ca565b60405180910390fd5b60006106f683836106f161140b565b611425565b90508373ffffffffffffffffffffffffffffffffffffffff168173ffffffffffffffffffffffffffffffffffffffff161461076c578382826040517f64283d7b00000000000000000000000000000000000000000000000000000000815260040161076393929190612a12565b60405180910390fd5b50505050565b61077a61163f565b610782610b75565b73ffffffffffffffffffffffffffffffffffffffff166108fc479081150290604051600060405180830381858888f193505050501580156107c7573d6000803e3d6000fd5b50565b6107e583838360405180602001604052806000815250610c47565b505050565b60086020528060005260406000206000915090508060000154908060010154908060020154908060030160009054906101000a900473ffffffffffffffffffffffffffffffffffffffff16908060030160149054906101000a900460ff16905085565b600a5481565b600061085e82611346565b9050919050565b60008073ffffffffffffffffffffffffffffffffffffffff168273ffffffffffffffffffffffffffffffffffffffff16036108d85760006040517f89c62b640000000000000000000000000000000000000000000000000000000081526004016108cf91906125ca565b60405180910390fd5b600360008373ffffffffffffffffffffffffffffffffffffffff1673ffffffffffffffffffffffffffffffffffffffff168152602001908152602001600020549050919050565b61092761163f565b61093160006116c6565b565b60003411610976576040517f08c379a000000000000000000000000000000000000000000000000000000000815260040161096d90612a95565b60405180910390fd5b6000600860003373ffffffffffffffffffffffffffffffffffffffff1673ffffffffffffffffffffffffffffffffffffffff16815260200190815260200160002060000154146109fb576040517f08c379a00000000000000000000000000000000000000000000000000000000081526004016109f290612b01565b60405180910390fd5b6040518060a001604052804281526020018281526020013481526020013373ffffffffffffffffffffffffffffffffffffffff16815260200160001515815250600860003373ffffffffffffffffffffffffffffffffffffffff1673ffffffffffffffffffffffffffffffffffffffff16815260200190815260200160002060008201518160000155602082015181600101556040820151816002015560608201518160030160006101000a81548173ffffffffffffffffffffffffffffffffffffffff021916908373ffffffffffffffffffffffffffffffffffffffff16021790555060808201518160030160146101000a81548160ff0219169083151502179055509050503373ffffffffffffffffffffffffffffffffffffffff167f34b9bf720e06abb24ae6c25cf5af4f3fed37d2e369ef7c2fcf7157e75b4c959f3483604051610b4a929190612b21565b60405180910390a250565b60096020528060005260406000206000915054906101000a900460ff1681565b6000600760009054906101000a900473ffffffffffffffffffffffffffffffffffffffff16905090565b606060018054610bae906129e1565b80601f0160208091040260200160405190810160405280929190818152602001828054610bda906129e1565b8015610c275780601f10610bfc57610100808354040283529160200191610c27565b820191906000526020600020905b815481529060010190602001808311610c0a57829003601f168201915b5050505050905090565b610c43610c3c61140b565b838361178c565b5050565b610c52848484610670565b610c66610c5d61140b565b858585856118fb565b50505050565b6060610c7782611346565b506000600660008481526020019081526020016000208054610c98906129e1565b80601f0160208091040260200160405190810160405280929190818152602001828054610cc4906129e1565b8015610d115780601f10610ce657610100808354040283529160200191610d11565b820191906000526020600020905b815481529060010190602001808311610cf457829003601f168201915b505050505090506000610d22611aac565b90506000815103610d37578192505050610d7a565b600082511115610d6c578082604051602001610d54929190612b86565b60405160208183030381529060405292505050610d7a565b610d7584611ac3565b925050505b919050565b6000600860003373ffffffffffffffffffffffffffffffffffffffff1673ffffffffffffffffffffffffffffffffffffffff16815260200190815260200160002090506000816000015411610e09576040517f08c379a0000000000000000000000000000000000000000000000000000000008152600401610e0090612bf6565b60405180910390fd5b600060048260020154610e1c9190612c74565b90506000818360020154610e309190612ca5565b9050600860003373ffffffffffffffffffffffffffffffffffffffff1673ffffffffffffffffffffffffffffffffffffffff168152602001908152602001600020600080820160009055600182016000905560028201600090556003820160006101000a81549073ffffffffffffffffffffffffffffffffffffffff02191690556003820160146101000a81549060ff021916905550503373ffffffffffffffffffffffffffffffffffffffff166108fc829081150290604051600060405180830381858888f19350505050158015610f0d573d6000803e3d6000fd5b503373ffffffffffffffffffffffffffffffffffffffff167f586d760317b2112a6ed21843c307b9e0249b626086e3cca25d44fd3fd7f0e77883604051610f549190612733565b60405180910390a2505050565b6000600560008473ffffffffffffffffffffffffffffffffffffffff1673ffffffffffffffffffffffffffffffffffffffff16815260200190815260200160002060008373ffffffffffffffffffffffffffffffffffffffff1673ffffffffffffffffffffffffffffffffffffffff16815260200190815260200160002060009054906101000a900460ff16905092915050565b6000600860003373ffffffffffffffffffffffffffffffffffffffff1673ffffffffffffffffffffffffffffffffffffffff1681526020019081526020016000209050600081600001541161107f576040517f08c379a000000000000000000000000000000000000000000000000000000000815260040161107690612bf6565b60405180910390fd5b806001015481600001546110939190612cd9565b4210156110d5576040517f08c379a00000000000000000000000000000000000000000000000000000000081526004016110cc90612d59565b60405180910390fd5b60018160030160146101000a81548160ff0219169083151502179055503373ffffffffffffffffffffffffffffffffffffffff166108fc82600201549081150290604051600060405180830381858888f1935050505015801561113c573d6000803e3d6000fd5b503373ffffffffffffffffffffffffffffffffffffffff167f01f55685ad9fe47911d4fe124cfb60f98f0401c105bd8ee5c9c5f6898d0f852060405160405180910390a2600960003373ffffffffffffffffffffffffffffffffffffffff1673ffffffffffffffffffffffffffffffffffffffff16815260200190815260200160002060009054906101000a900460ff166111db576111da33611b2c565b5b50565b6111e661163f565b600073ffffffffffffffffffffffffffffffffffffffff168173ffffffffffffffffffffffffffffffffffffffff16036112585760006040517f1e4fbdf700000000000000000000000000000000000000000000000000000000815260040161124f91906125ca565b60405180910390fd5b611261816116c6565b50565b60007f80ac58cd000000000000000000000000000000000000000000000000000000007bffffffffffffffffffffffffffffffffffffffffffffffffffffffff1916827bffffffffffffffffffffffffffffffffffffffffffffffffffffffff1916148061132f57507f5b5e139f000000000000000000000000000000000000000000000000000000007bffffffffffffffffffffffffffffffffffffffffffffffffffffffff1916827bffffffffffffffffffffffffffffffffffffffffffffffffffffffff1916145b8061133f575061133e82611c3e565b5b9050919050565b60008061135283611ca8565b9050600073ffffffffffffffffffffffffffffffffffffffff168173ffffffffffffffffffffffffffffffffffffffff16036113c557826040517f7e2732890000000000000000000000000000000000000000000000000000000081526004016113bc9190612733565b60405180910390fd5b80915050919050565b60006004600083815260200190815260200160002060009054906101000a900473ffffffffffffffffffffffffffffffffffffffff169050919050565b600033905090565b6114208383836001611ce5565b505050565b60008061143184611ca8565b9050600073ffffffffffffffffffffffffffffffffffffffff168373ffffffffffffffffffffffffffffffffffffffff161461147357611472818486611eaa565b5b600073ffffffffffffffffffffffffffffffffffffffff168173ffffffffffffffffffffffffffffffffffffffff1614611504576114b5600085600080611ce5565b6001600360008373ffffffffffffffffffffffffffffffffffffffff1673ffffffffffffffffffffffffffffffffffffffff168152602001908152602001600020600082825403925050819055505b600073ffffffffffffffffffffffffffffffffffffffff168573ffffffffffffffffffffffffffffffffffffffff1614611587576001600360008773ffffffffffffffffffffffffffffffffffffffff1673ffffffffffffffffffffffffffffffffffffffff168152602001908152602001600020600082825401925050819055505b846002600086815260200190815260200160002060006101000a81548173ffffffffffffffffffffffffffffffffffffffff021916908373ffffffffffffffffffffffffffffffffffffffff160217905550838573ffffffffffffffffffffffffffffffffffffffff168273ffffffffffffffffffffffffffffffffffffffff167fddf252ad1be2c89b69c2b068fc378daa952ba7f163c4a11628f55a4df523b3ef60405160405180910390a4809150509392505050565b61164761140b565b73ffffffffffffffffffffffffffffffffffffffff16611665610b75565b73ffffffffffffffffffffffffffffffffffffffff16146116c45761168861140b565b6040517f118cdaa70000000000000000000000000000000000000000000000000000000081526004016116bb91906125ca565b60405180910390fd5b565b6000600760009054906101000a900473ffffffffffffffffffffffffffffffffffffffff16905081600760006101000a81548173ffffffffffffffffffffffffffffffffffffffff021916908373ffffffffffffffffffffffffffffffffffffffff1602179055508173ffffffffffffffffffffffffffffffffffffffff168173ffffffffffffffffffffffffffffffffffffffff167f8be0079c531659141344cd1fd0a4f28419497f9722a3daafe3b4186f6b6457e060405160405180910390a35050565b600073ffffffffffffffffffffffffffffffffffffffff168273ffffffffffffffffffffffffffffffffffffffff16036117fd57816040517f5b08ba180000000000000000000000000000000000000000000000000000000081526004016117f491906125ca565b60405180910390fd5b80600560008573ffffffffffffffffffffffffffffffffffffffff1673ffffffffffffffffffffffffffffffffffffffff16815260200190815260200160002060008473ffffffffffffffffffffffffffffffffffffffff1673ffffffffffffffffffffffffffffffffffffffff16815260200190815260200160002060006101000a81548160ff0219169083151502179055508173ffffffffffffffffffffffffffffffffffffffff168373ffffffffffffffffffffffffffffffffffffffff167f17307eab39ab6107e8899845ad3d59bd9653f200f220920489ca2b5937696c31836040516118ee9190612459565b60405180910390a3505050565b60008373ffffffffffffffffffffffffffffffffffffffff163b1115611aa5578273ffffffffffffffffffffffffffffffffffffffff1663150b7a02868685856040518563ffffffff1660e01b815260040161195a9493929190612dce565b6020604051808303816000875af192505050801561199657506040513d601f19601f820116820180604052508101906119939190612e2f565b60015b611a1a573d80600081146119c6576040519150601f19603f3d011682016040523d82523d6000602084013e6119cb565b606091505b506000815103611a1257836040517f64a0ae92000000000000000000000000000000000000000000000000000000008152600401611a0991906125ca565b60405180910390fd5b805181602001fd5b63150b7a0260e01b7bffffffffffffffffffffffffffffffffffffffffffffffffffffffff1916817bffffffffffffffffffffffffffffffffffffffffffffffffffffffff191614611aa357836040517f64a0ae92000000000000000000000000000000000000000000000000000000008152600401611a9a91906125ca565b60405180910390fd5b505b5050505050565b606060405180602001604052806000815250905090565b6060611ace82611346565b506000611ad9611aac565b90506000815111611af95760405180602001604052806000815250611b24565b80611b0384611f6e565b604051602001611b14929190612b86565b6040516020818303038152906040525b915050919050565b6000600a549050611b3d828261203c565b611b7c816040518060400160405280601881526020017f697066733a2f2f516d4e46544d65746164617461486173680000000000000000815250612135565b600a6000815480929190611b8f90612e5c565b91905055506001600960008473ffffffffffffffffffffffffffffffffffffffff1673ffffffffffffffffffffffffffffffffffffffff16815260200190815260200160002060006101000a81548160ff0219169083151502179055508173ffffffffffffffffffffffffffffffffffffffff167f8c4b0bd0847d940a8f64327b75ae300814f43d12e16f2f0b6da686d784f00beb82604051611c329190612733565b60405180910390a25050565b60007f01ffc9a7000000000000000000000000000000000000000000000000000000007bffffffffffffffffffffffffffffffffffffffffffffffffffffffff1916827bffffffffffffffffffffffffffffffffffffffffffffffffffffffff1916149050919050565b60006002600083815260200190815260200160002060009054906101000a900473ffffffffffffffffffffffffffffffffffffffff169050919050565b8080611d1e5750600073ffffffffffffffffffffffffffffffffffffffff168273ffffffffffffffffffffffffffffffffffffffff1614155b15611e52576000611d2e84611346565b9050600073ffffffffffffffffffffffffffffffffffffffff168373ffffffffffffffffffffffffffffffffffffffff1614158015611d9957508273ffffffffffffffffffffffffffffffffffffffff168173ffffffffffffffffffffffffffffffffffffffff1614155b8015611dac5750611daa8184610f61565b155b15611dee57826040517fa9fbf51f000000000000000000000000000000000000000000000000000000008152600401611de591906125ca565b60405180910390fd5b8115611e5057838573ffffffffffffffffffffffffffffffffffffffff168273ffffffffffffffffffffffffffffffffffffffff167f8c5be1e5ebec7d5bd14f71427d1e84f3dd0314c0f7b2291e5b200ac8c7c3b92560405160405180910390a45b505b836004600085815260200190815260200160002060006101000a81548173ffffffffffffffffffffffffffffffffffffffff021916908373ffffffffffffffffffffffffffffffffffffffff16021790555050505050565b611eb5838383612191565b611f6957600073ffffffffffffffffffffffffffffffffffffffff168373ffffffffffffffffffffffffffffffffffffffff1603611f2a57806040517f7e273289000000000000000000000000000000000000000000000000000000008152600401611f219190612733565b60405180910390fd5b81816040517f177e802f000000000000000000000000000000000000000000000000000000008152600401611f60929190612ea4565b60405180910390fd5b505050565b606060006001611f7d84612252565b01905060008167ffffffffffffffff811115611f9c57611f9b6127c4565b5b6040519080825280601f01601f191660200182016040528015611fce5781602001600182028036833780820191505090505b509050600082602001820190505b600115612031578080600190039150507f3031323334353637383961626364656600000000000000000000000000000000600a86061a8153600a858161202557612024612c16565b5b04945060008503611fdc575b819350505050919050565b600073ffffffffffffffffffffffffffffffffffffffff168273ffffffffffffffffffffffffffffffffffffffff16036120ae5760006040517f64a0ae920000000000000000000000000000000000000000000000000000000081526004016120a591906125ca565b60405180910390fd5b60006120bc83836000611425565b9050600073ffffffffffffffffffffffffffffffffffffffff168173ffffffffffffffffffffffffffffffffffffffff16146121305760006040517f73c6ac6e00000000000000000000000000000000000000000000000000000000815260040161212791906125ca565b60405180910390fd5b505050565b806006600084815260200190815260200160002090816121559190613079565b507ff8e1a15aba9398e019f0b49df1a4fde98ee17ae345cb5f6b5e2c27f5033e8ce7826040516121859190612733565b60405180910390a15050565b60008073ffffffffffffffffffffffffffffffffffffffff168373ffffffffffffffffffffffffffffffffffffffff161415801561224957508273ffffffffffffffffffffffffffffffffffffffff168473ffffffffffffffffffffffffffffffffffffffff16148061220a57506122098484610f61565b5b8061224857508273ffffffffffffffffffffffffffffffffffffffff16612230836113ce565b73ffffffffffffffffffffffffffffffffffffffff16145b5b90509392505050565b600080600090507a184f03e93ff9f4daa797ed6e38ed64bf6a1f01000000000000000083106122b0577a184f03e93ff9f4daa797ed6e38ed64bf6a1f01000000000000000083816122a6576122a5612c16565b5b0492506040810190505b6d04ee2d6d415b85acef810000000083106122ed576d04ee2d6d415b85acef810000000083816122e3576122e2612c16565b5b0492506020810190505b662386f26fc10000831061231c57662386f26fc10000838161231257612311612c16565b5b0492506010810190505b6305f5e1008310612345576305f5e100838161233b5761233a612c16565b5b0492506008810190505b612710831061236a5761271083816123605761235f612c16565b5b0492506004810190505b6064831061238d576064838161238357612382612c16565b5b0492506002810190505b600a831061239c576001810190505b80915050919050565b6000604051905090565b600080fd5b600080fd5b60007fffffffff0000000000000000000000000000000000000000000000000000000082169050919050565b6123ee816123b9565b81146123f957600080fd5b50565b60008135905061240b816123e5565b92915050565b600060208284031215612427576124266123af565b5b6000612435848285016123fc565b91505092915050565b60008115159050919050565b6124538161243e565b82525050565b600060208201905061246e600083018461244a565b92915050565b600081519050919050565b600082825260208201905092915050565b60005b838110156124ae578082015181840152602081019050612493565b60008484015250505050565b6000601f19601f8301169050919050565b60006124d682612474565b6124e0818561247f565b93506124f0818560208601612490565b6124f9816124ba565b840191505092915050565b6000602082019050818103600083015261251e81846124cb565b905092915050565b6000819050919050565b61253981612526565b811461254457600080fd5b50565b60008135905061255681612530565b92915050565b600060208284031215612572576125716123af565b5b600061258084828501612547565b91505092915050565b600073ffffffffffffffffffffffffffffffffffffffff82169050919050565b60006125b482612589565b9050919050565b6125c4816125a9565b82525050565b60006020820190506125df60008301846125bb565b92915050565b6125ee816125a9565b81146125f957600080fd5b50565b60008135905061260b816125e5565b92915050565b60008060408385031215612628576126276123af565b5b6000612636858286016125fc565b925050602061264785828601612547565b9150509250929050565b60008060006060848603121561266a576126696123af565b5b6000612678868287016125fc565b9350506020612689868287016125fc565b925050604061269a86828701612547565b9150509250925092565b6000602082840312156126ba576126b96123af565b5b60006126c8848285016125fc565b91505092915050565b6126da81612526565b82525050565b600060a0820190506126f560008301886126d1565b61270260208301876126d1565b61270f60408301866126d1565b61271c60608301856125bb565b612729608083018461244a565b9695505050505050565b600060208201905061274860008301846126d1565b92915050565b6127578161243e565b811461276257600080fd5b50565b6000813590506127748161274e565b92915050565b60008060408385031215612791576127906123af565b5b600061279f858286016125fc565b92505060206127b085828601612765565b9150509250929050565b600080fd5b600080fd5b7f4e487b7100000000000000000000000000000000000000000000000000000000600052604160045260246000fd5b6127fc826124ba565b810181811067ffffffffffffffff8211171561281b5761281a6127c4565b5b80604052505050565b600061282e6123a5565b905061283a82826127f3565b919050565b600067ffffffffffffffff82111561285a576128596127c4565b5b612863826124ba565b9050602081019050919050565b82818337600083830152505050565b600061289261288d8461283f565b612824565b9050828152602081018484840111156128ae576128ad6127bf565b5b6128b9848285612870565b509392505050565b600082601f8301126128d6576128d56127ba565b5b81356128e684826020860161287f565b91505092915050565b60008060008060808587031215612909576129086123af565b5b6000612917878288016125fc565b9450506020612928878288016125fc565b935050604061293987828801612547565b925050606085013567ffffffffffffffff81111561295a576129596123b4565b5b612966878288016128c1565b91505092959194509250565b60008060408385031215612989576129886123af565b5b6000612997858286016125fc565b92505060206129a8858286016125fc565b9150509250929050565b7f4e487b7100000000000000000000000000000000000000000000000000000000600052602260045260246000fd5b600060028204905060018216806129f957607f821691505b602082108103612a0c57612a0b6129b2565b5b50919050565b6000606082019050612a2760008301866125bb565b612a3460208301856126d1565b612a4160408301846125bb565b949350505050565b7f4d757374207374616b6520455448000000000000000000000000000000000000600082015250565b6000612a7f600e8361247f565b9150612a8a82612a49565b602082019050919050565b60006020820190508181036000830152612aae81612a72565b9050919050565b7f53657373696f6e20616c72656164792061637469766500000000000000000000600082015250565b6000612aeb60168361247f565b9150612af682612ab5565b602082019050919050565b60006020820190508181036000830152612b1a81612ade565b9050919050565b6000604082019050612b3660008301856126d1565b612b4360208301846126d1565b9392505050565b600081905092915050565b6000612b6082612474565b612b6a8185612b4a565b9350612b7a818560208601612490565b80840191505092915050565b6000612b928285612b55565b9150612b9e8284612b55565b91508190509392505050565b7f4e6f206163746976652073657373696f6e000000000000000000000000000000600082015250565b6000612be060118361247f565b9150612beb82612baa565b602082019050919050565b60006020820190508181036000830152612c0f81612bd3565b9050919050565b7f4e487b7100000000000000000000000000000000000000000000000000000000600052601260045260246000fd5b7f4e487b7100000000000000000000000000000000000000000000000000000000600052601160045260246000fd5b6000612c7f82612526565b9150612c8a83612526565b925082612c9a57612c99612c16565b5b828204905092915050565b6000612cb082612526565b9150612cbb83612526565b9250828203905081811115612cd357612cd2612c45565b5b92915050565b6000612ce482612526565b9150612cef83612526565b9250828201905080821115612d0757612d06612c45565b5b92915050565b7f53657373696f6e206e6f742066696e6973686564000000000000000000000000600082015250565b6000612d4360148361247f565b9150612d4e82612d0d565b602082019050919050565b60006020820190508181036000830152612d7281612d36565b9050919050565b600081519050919050565b600082825260208201905092915050565b6000612da082612d79565b612daa8185612d84565b9350612dba818560208601612490565b612dc3816124ba565b840191505092915050565b6000608082019050612de360008301876125bb565b612df060208301866125bb565b612dfd60408301856126d1565b8181036060830152612e0f8184612d95565b905095945050505050565b600081519050612e29816123e5565b92915050565b600060208284031215612e4557612e446123af565b5b6000612e5384828501612e1a565b91505092915050565b6000612e6782612526565b91507fffffffffffffffffffffffffffffffffffffffffffffffffffffffffffffffff8203612e9957612e98612c45565b5b600182019050919050565b6000604082019050612eb960008301856125bb565b612ec660208301846126d1565b9392505050565b60008190508160005260206000209050919050565b60006020601f8301049050919050565b600082821b905092915050565b600060088302612f2f7fffffffffffffffffffffffffffffffffffffffffffffffffffffffffffffffff82612ef2565b612f398683612ef2565b95508019841693508086168417925050509392505050565b6000819050919050565b6000612f76612f71612f6c84612526565b612f51565b612526565b9050919050565b6000819050919050565b612f9083612f5b565b612fa4612f9c82612f7d565b848454612eff565b825550505050565b600090565b612fb9612fac565b612fc4818484612f87565b505050565b5b81811015612fe857612fdd600082612fb1565b600181019050612fca565b5050565b601f82111561302d57612ffe81612ecd565b61300784612ee2565b81016020851015613016578190505b61302a61302285612ee2565b830182612fc9565b50505b505050565b600082821c905092915050565b600061305060001984600802613032565b1980831691505092915050565b6000613069838361303f565b9150826002028217905092915050565b61308282612474565b67ffffffffffffffff81111561309b5761309a6127c4565b5b6130a582546129e1565b6130b0828285612fec565b600060209050601f8311600181146130e357600084156130d1578287015190505b6130db858261305d565b865550613143565b601f1984166130f186612ecd565b60005b82811015613119578489015182556001820191506020850194506020810190506130f4565b868310156131365784890151613132601f89168261303f565b8355505b6001600288020188555050505b50505050505056fea2646970667358221220e3ae1961efead5af83cddc52dc1b315d5e69cd9c9bccc027809e0821790cc38164736f6c63430008140033",
  "linkReferences": {},
  "deployedLinkReferences": {}
}